:040000009EEF05F07A
:100800000048656C6C6F20576F726C6400000D6E51
:100810008C8465D00A0E016E0D5075EC05F00C6EDF
:100820000C50300F35EC05F0D8EC05F0040E0AEC56
:1008300005F012000A0E056E640E016E0D5075EC87
:1008400005F058EC05F00B6E0A0E016E0D5075ECBC
:1008500005F00C6E0B50300F35EC05F0D8EC05F0C0
:10086000040E0AEC05F00C50300F35EC05F0D8EC16
:1008700005F0040E0AEC05F01200640E056E0D5032
:1008800058EC05F00A6E0A0E056E640E016E0D50EE
:1008900075EC05F058EC05F00B6E0A0E016E0D506C
:1008A00075EC05F00C6E0A50300F35EC05F0D8EC05
:1008B00005F0040E0AEC05F00B50300F35EC05F096
:1008C000D8EC05F0040E0AEC05F00C50300F35ECB6
:1008D00005F0D8EC05F0040E0AEC05F01200095002
:1008E000010AD8B497D7030AD8B4A4D7010AD8A468
:1008F0001200C3D78C94040E1018D8A404D08C50C6
:100900000F0B300901D03F0E8C6ED8EC05F0010EB4
:100910000AEC05F0040E1018D8A404D08C500F0B6C
:10092000300901D03F0E8C6ED8EC05F0030E0AECB6
:1009300005F0040E1018D8A404D08C500F0B300909
:1009400001D03F0E8C6ED8EC05F0040E0AEC05F0D9
:10095000040E1018D8A411D08C500F0B20098C6EE7
:10096000D8EC05F0040E0AEC05F02F0E35EC05F07E
:10097000D8EC05F0040E0AEC05F0CEEC05F00F0EF5
:1009800035EC05F0D8EC05F0040E0AEC05F0120089
:10099000000E956E000E8C6E020E0F6E450E0E6EE2
:1009A000AA0EE82EFED70E2EFCD70F2EFAD7040E75
:1009B000ACEC05F07AEC04F0480EB8EC05F06F0EE4
:1009C000B8EC05F06C0EB8EC05F0610EB8EC05F073
:1009D000200EB8EC05F04D0EB8EC05F0750EB8EC35
:1009E00005F06E0EB8EC05F0640EB8EC05F06F0E75
:1009F000B8EC05F0260EB8EC05F0C00EC3EC05F01F
:100A0000010E066E8AEC05F0030E096EFF0E07EC70
:100A100004F0FFD7026E1BD0050E016EDE0EE82E2D
:100A2000FED7012EFCD71200530EE82EFED700F0A1
:100A3000350EE82EFED700F01200080EE82EFED785
:100A400000F01200030EE82EFED700F01200025054
:100A5000010AD8B4E1D7030AD8B4E6D7010AD8B45A
:100A6000ECD7070AD8A41200EDD7046E040E1018B4
:100A7000D8A417D004C003F0F00E03168C500F0B4F
:100A800003108C6ED8EC05F0010E0AEC05F004C0E2
:100A900003F0033AF00E03168C500F0B03108C6E0C
:100AA0001200080E1018D8A4120004C08CFF120007
:100AB000066E000E086E0550D8B415D0010E076EF4
:100AC00003D0D8900536072A05AEFBD7D890083654
:100AD0000550065CD8A003D00550065E0880D8906B
:100AE0000532072EF3D708501200026E080E036E6F
:100AF000000E046ED89002340434046ED89002368E
:100B00000150045CD8A002D00150045E032EF2D73D
:100B10000450120009D006C0F6FF080EF76E080058
:100B2000F550B8EC05F0062A06C0F6FF080EF76E81
:100B30000800F5500009D8B41200EDD7BE0EF66ECD
:100B40000B0EF76E000EF86E0900F5CF10F0000ED8
:100B5000F86E0001C8EF04F0016E040E0118D8B45D
:100B600004D0080E0118D8A4120001C010F0120021
:100B7000056E8C84055035EC05F0D8EC05F0040EBC
:100B80000AEC05F01200056E8C94055035EC05F06A
:100B9000D8EC05F0040E0AEC05F012008C94010E5E
:100BA00035EC05F0D8EC05F0020E0AEC05F0120069
:0F0BB0008C86030EE82EFED700F08C96120008FC
:020000040020DA
:08000000FFFFFFFFFFFFFFFF00
:020000040030CA
:0E00000000091F1EFF8385FF0FC00FE00F4099
:00000001FF
